{
  "_format": "hh-sol-artifact-1",
  "contractName": "MyEpicNFT",
  "sourceName": "contracts/MyEpicNFT.sol",
  "abi": [
    {
      "inputs": [],
      "stateMutability": "nonpayable",
      "type": "constructor"
    },
    {
      "anonymous": false,
      "inputs": [
        {
          "indexed": true,
          "internalType": "address",
          "name": "owner",
          "type": "address"
        },
        {
          "indexed": true,
          "internalType": "address",
          "name": "approved",
          "type": "address"
        },
        {
          "indexed": true,
          "internalType": "uint256",
          "name": "tokenId",
          "type": "uint256"
        }
      ],
      "name": "Approval",
      "type": "event"
    },
    {
      "anonymous": false,
      "inputs": [
        {
          "indexed": true,
          "internalType": "address",
          "name": "owner",
          "type": "address"
        },
        {
          "indexed": true,
          "internalType": "address",
          "name": "operator",
          "type": "address"
        },
        {
          "indexed": false,
          "internalType": "bool",
          "name": "approved",
          "type": "bool"
        }
      ],
      "name": "ApprovalForAll",
      "type": "event"
    },
    {
      "anonymous": false,
      "inputs": [
        {
          "indexed": false,
          "internalType": "address",
          "name": "sender",
          "type": "address"
        },
        {
          "indexed": false,
          "internalType": "uint256",
          "name": "tokenId",
          "type": "uint256"
        }
      ],
      "name": "NewEpicNFTMinted",
      "type": "event"
    },
    {
      "anonymous": false,
      "inputs": [
        {
          "indexed": true,
          "internalType": "address",
          "name": "from",
          "type": "address"
        },
        {
          "indexed": true,
          "internalType": "address",
          "name": "to",
          "type": "address"
        },
        {
          "indexed": true,
          "internalType": "uint256",
          "name": "tokenId",
          "type": "uint256"
        }
      ],
      "name": "Transfer",
      "type": "event"
    },
    {
      "inputs": [
        {
          "internalType": "address",
          "name": "to",
          "type": "address"
        },
        {
          "internalType": "uint256",
          "name": "tokenId",
          "type": "uint256"
        }
      ],
      "name": "approve",
      "outputs": [],
      "stateMutability": "nonpayable",
      "type": "function"
    },
    {
      "inputs": [
        {
          "internalType": "address",
          "name": "owner",
          "type": "address"
        }
      ],
      "name": "balanceOf",
      "outputs": [
        {
          "internalType": "uint256",
          "name": "",
          "type": "uint256"
        }
      ],
      "stateMutability": "view",
      "type": "function"
    },
    {
      "inputs": [
        {
          "internalType": "uint256",
          "name": "tokenId",
          "type": "uint256"
        }
      ],
      "name": "getApproved",
      "outputs": [
        {
          "internalType": "address",
          "name": "",
          "type": "address"
        }
      ],
      "stateMutability": "view",
      "type": "function"
    },
    {
      "inputs": [],
      "name": "getTokenIds",
      "outputs": [
        {
          "internalType": "uint256",
          "name": "",
          "type": "uint256"
        }
      ],
      "stateMutability": "view",
      "type": "function"
    },
    {
      "inputs": [
        {
          "internalType": "address",
          "name": "owner",
          "type": "address"
        },
        {
          "internalType": "address",
          "name": "operator",
          "type": "address"
        }
      ],
      "name": "isApprovedForAll",
      "outputs": [
        {
          "internalType": "bool",
          "name": "",
          "type": "bool"
        }
      ],
      "stateMutability": "view",
      "type": "function"
    },
    {
      "inputs": [],
      "name": "makeAnEpicNFT",
      "outputs": [],
      "stateMutability": "nonpayable",
      "type": "function"
    },
    {
      "inputs": [],
      "name": "name",
      "outputs": [
        {
          "internalType": "string",
          "name": "",
          "type": "string"
        }
      ],
      "stateMutability": "view",
      "type": "function"
    },
    {
      "inputs": [
        {
          "internalType": "uint256",
          "name": "tokenId",
          "type": "uint256"
        }
      ],
      "name": "ownerOf",
      "outputs": [
        {
          "internalType": "address",
          "name": "",
          "type": "address"
        }
      ],
      "stateMutability": "view",
      "type": "function"
    },
    {
      "inputs": [
        {
          "internalType": "uint256",
          "name": "tokenId",
          "type": "uint256"
        }
      ],
      "name": "pickRandomFirstWord",
      "outputs": [
        {
          "internalType": "string",
          "name": "",
          "type": "string"
        }
      ],
      "stateMutability": "view",
      "type": "function"
    },
    {
      "inputs": [
        {
          "internalType": "uint256",
          "name": "tokenId",
          "type": "uint256"
        }
      ],
      "name": "pickRandomSecondWord",
      "outputs": [
        {
          "internalType": "string",
          "name": "",
          "type": "string"
        }
      ],
      "stateMutability": "view",
      "type": "function"
    },
    {
      "inputs": [
        {
          "internalType": "uint256",
          "name": "tokenId",
          "type": "uint256"
        }
      ],
      "name": "pickRandomThirdWord",
      "outputs": [
        {
          "internalType": "string",
          "name": "",
          "type": "string"
        }
      ],
      "stateMutability": "view",
      "type": "function"
    },
    {
      "inputs": [
        {
          "internalType": "address",
          "name": "from",
          "type": "address"
        },
        {
          "internalType": "address",
          "name": "to",
          "type": "address"
        },
        {
          "internalType": "uint256",
          "name": "tokenId",
          "type": "uint256"
        }
      ],
      "name": "safeTransferFrom",
      "outputs": [],
      "stateMutability": "nonpayable",
      "type": "function"
    },
    {
      "inputs": [
        {
          "internalType": "address",
          "name": "from",
          "type": "address"
        },
        {
          "internalType": "address",
          "name": "to",
          "type": "address"
        },
        {
          "internalType": "uint256",
          "name": "tokenId",
          "type": "uint256"
        },
        {
          "internalType": "bytes",
          "name": "_data",
          "type": "bytes"
        }
      ],
      "name": "safeTransferFrom",
      "outputs": [],
      "stateMutability": "nonpayable",
      "type": "function"
    },
    {
      "inputs": [
        {
          "internalType": "address",
          "name": "operator",
          "type": "address"
        },
        {
          "internalType": "bool",
          "name": "approved",
          "type": "bool"
        }
      ],
      "name": "setApprovalForAll",
      "outputs": [],
      "stateMutability": "nonpayable",
      "type": "function"
    },
    {
      "inputs": [
        {
          "internalType": "bytes4",
          "name": "interfaceId",
          "type": "bytes4"
        }
      ],
      "name": "supportsInterface",
      "outputs": [
        {
          "internalType": "bool",
          "name": "",
          "type": "bool"
        }
      ],
      "stateMutability": "view",
      "type": "function"
    },
    {
      "inputs": [],
      "name": "symbol",
      "outputs": [
        {
          "internalType": "string",
          "name": "",
          "type": "string"
        }
      ],
      "stateMutability": "view",
      "type": "function"
    },
    {
      "inputs": [
        {
          "internalType": "uint256",
          "name": "tokenId",
          "type": "uint256"
        }
      ],
      "name": "tokenURI",
      "outputs": [
        {
          "internalType": "string",
          "name": "",
          "type": "string"
        }
      ],
      "stateMutability": "view",
      "type": "function"
    },
    {
      "inputs": [
        {
          "internalType": "address",
          "name": "from",
          "type": "address"
        },
        {
          "internalType": "address",
          "name": "to",
          "type": "address"
        },
        {
          "internalType": "uint256",
          "name": "tokenId",
          "type": "uint256"
        }
      ],
      "name": "transferFrom",
      "outputs": [],
      "stateMutability": "nonpayable",
      "type": "function"
    }
  ],
  "bytecode": "0x608060405260405180610160016040528061012f8152602001620045c661012f913960089080519060200190620000389291906200067e565b506040518060c001604052806040518060400160405280600581526020017f526976656e00000000000000000000000000000000000000000000000000000081525081526020016040518060400160405280600581526020017f46696f726100000000000000000000000000000000000000000000000000000081525081526020016040518060400160405280600681526020017f446172697573000000000000000000000000000000000000000000000000000081525081526020016040518060400160405280600981526020017f47616e67706c616e6b000000000000000000000000000000000000000000000081525081526020016040518060400160405280600681526020017f4972656c6961000000000000000000000000000000000000000000000000000081525081526020016040518060400160405280600881526020017f4d616c70686974650000000000000000000000000000000000000000000000008152508152506009906006620001b69291906200070f565b506040518060c001604052806040518060400160405280600481526020017f416872690000000000000000000000000000000000000000000000000000000081525081526020016040518060400160405280600381526020017f5a6564000000000000000000000000000000000000000000000000000000000081525081526020016040518060400160405280600581526020017f54616c6f6e00000000000000000000000000000000000000000000000000000081525081526020016040518060400160405280600381526020017f566578000000000000000000000000000000000000000000000000000000000081525081526020016040518060400160405280600681526020017f416e69766961000000000000000000000000000000000000000000000000000081525081526020016040518060400160405280600781526020017f4c65426c616e6300000000000000000000000000000000000000000000000000815250815250600a906006620003349291906200070f565b506040518060c001604052806040518060400160405280600481526020017f5a6572690000000000000000000000000000000000000000000000000000000081525081526020016040518060400160405280600481526020017f4a696e780000000000000000000000000000000000000000000000000000000081525081526020016040518060400160405280600481526020017f4a68696e0000000000000000000000000000000000000000000000000000000081525081526020016040518060400160405280600681526020017f53616d697261000000000000000000000000000000000000000000000000000081525081526020016040518060400160405280600581526020017f5661796e6500000000000000000000000000000000000000000000000000000081525081526020016040518060400160405280600681526020017f457a7265616c0000000000000000000000000000000000000000000000000000815250815250600b906006620004b29291906200070f565b50348015620004c057600080fd5b506040518060400160405280600981526020017f5371756172654e465400000000000000000000000000000000000000000000008152506040518060400160405280600681526020017f53515541524500000000000000000000000000000000000000000000000000008152508160009080519060200190620005459291906200067e565b5080600190805190602001906200055e9291906200067e565b505050620005ac6040518060400160405280601881526020017f54686973206973206d79204e465420636f6e74726163742e0000000000000000815250620005b260201b620012821760201c565b62000930565b6200065281604051602401620005c9919062000844565b6040516020818303038152906040527f41304fac000000000000000000000000000000000000000000000000000000007bffffffffffffffffffffffffffffffffffffffffffffffffffffffff19166020820180517bffffffffffffffffffffffffffffffffffffffffffffffffffffffff83818316178352505050506200065560201b60201c565b50565b60008151905060006a636f6e736f6c652e6c6f679050602083016000808483855afa5050505050565b8280546200068c90620008ba565b90600052602060002090601f016020900481019282620006b05760008555620006fc565b82601f10620006cb57805160ff1916838001178555620006fc565b82800160010185558215620006fc579182015b82811115620006fb578251825591602001919060010190620006de565b5b5090506200070b919062000776565b5090565b82805482825590600052602060002090810192821562000763579160200282015b8281111562000762578251829080519060200190620007519291906200067e565b509160200191906001019062000730565b5b50905062000772919062000795565b5090565b5b808211156200079157600081600090555060010162000777565b5090565b5b80821115620007b95760008181620007af9190620007bd565b5060010162000796565b5090565b508054620007cb90620008ba565b6000825580601f10620007df575062000800565b601f016020900490600052602060002090810190620007ff919062000776565b5b50565b6000620008108262000868565b6200081c818562000873565b93506200082e81856020860162000884565b62000839816200091f565b840191505092915050565b6000602082019050818103600083015262000860818462000803565b905092915050565b600081519050919050565b600082825260208201905092915050565b60005b83811015620008a457808201518184015260208101905062000887565b83811115620008b4576000848401525b50505050565b60006002820490506001821680620008d357607f821691505b60208210811415620008ea57620008e9620008f0565b5b50919050565b7f4e487b7100000000000000000000000000000000000000000000000000000000600052602260045260246000fd5b6000601f19601f8301169050919050565b613c8680620009406000396000f3fe608060405234801561001057600080fd5b50600436106101165760003560e01c806370a08231116100a2578063b88d4fde11610071578063b88d4fde14610305578063c575757a14610321578063c87b56dd14610351578063de9d132f14610381578063e985e9c51461038b57610116565b806370a082311461026b57806395d89b411461029b578063a22cb465146102b9578063b187301f146102d557610116565b806323b872dd116100e957806323b872dd146101b55780632de38d68146101d157806342842e0e146102015780636352211e1461021d57806367f718a91461024d57610116565b806301ffc9a71461011b57806306fdde031461014b578063081812fc14610169578063095ea7b314610199575b600080fd5b6101356004803603810190610130919061274a565b6103bb565b6040516101429190612e6e565b60405180910390f35b61015361049d565b6040516101609190612e89565b60405180910390f35b610183600480360381019061017e919061279c565b61052f565b6040516101909190612dde565b60405180910390f35b6101b360048036038101906101ae919061270e565b6105b4565b005b6101cf60048036038101906101ca9190612608565b6106cc565b005b6101eb60048036038101906101e6919061279c565b61072c565b6040516101f89190612e89565b60405180910390f35b61021b60048036038101906102169190612608565b6108c8565b005b6102376004803603810190610232919061279c565b6108e8565b6040516102449190612dde565b60405180910390f35b61025561099a565b6040516102629190613119565b60405180910390f35b610285600480360381019061028091906125a3565b6109b0565b6040516102929190613119565b60405180910390f35b6102a3610a68565b6040516102b09190612e89565b60405180910390f35b6102d360048036038101906102ce91906126d2565b610afa565b005b6102ef60048036038101906102ea919061279c565b610b10565b6040516102fc9190612e89565b60405180910390f35b61031f600480360381019061031a9190612657565b610c6d565b005b61033b6004803603810190610336919061279c565b610ccf565b6040516103489190612e89565b60405180910390f35b61036b6004803603810190610366919061279c565b610e2c565b6040516103789190612e89565b60405180910390f35b610389610f7e565b005b6103a560048036038101906103a091906125cc565b6111ee565b6040516103b29190612e6e565b60405180910390f35b60007f80ac58cd000000000000000000000000000000000000000000000000000000007bffffffffffffffffffffffffffffffffffffffffffffffffffffffff1916827bffffffffffffffffffffffffffffffffffffffffffffffffffffffff1916148061048657507f5b5e139f000000000000000000000000000000000000000000000000000000007bffffffffffffffffffffffffffffffffffffffffffffffffffffffff1916827bffffffffffffffffffffffffffffffffffffffffffffffffffffffff1916145b8061049657506104958261131b565b5b9050919050565b6060600080546104ac906133ad565b80601f01602080910402602001604051908101604052809291908181526020018280546104d8906133ad565b80156105255780601f106104fa57610100808354040283529160200191610525565b820191906000526020600020905b81548152906001019060200180831161050857829003601f168201915b5050505050905090565b600061053a82611385565b610579576040517f08c379a000000000000000000000000000000000000000000000000000000000815260040161057090613099565b60405180910390fd5b6004600083815260200190815260200160002060009054906101000a900473ffffffffffffffffffffffffffffffffffffffff169050919050565b60006105bf826108e8565b90508073ffffffffffffffffffffffffffffffffffffffff168373ffffffffffffffffffffffffffffffffffffffff161415610630576040517f08c379a0000000000000000000000000000000000000000000000000000000008152600401610627906130d9565b60405180910390fd5b8073ffffffffffffffffffffffffffffffffffffffff1661064f6113f1565b73ffffffffffffffffffffffffffffffffffffffff16148061067e575061067d816106786113f1565b6111ee565b5b6106bd576040517f08c379a00000000000000000000000000000000000000000000000000000000081526004016106b490612fd9565b60405180910390fd5b6106c783836113f9565b505050565b6106dd6106d76113f1565b826114b2565b61071c576040517f08c379a0000000000000000000000000000000000000000000000000000000008152600401610713906130f9565b60405180910390fd5b610727838383611590565b505050565b6060600061076061073c846117f7565b60405160200161074c9190612d9a565b6040516020818303038152906040526119a4565b90506107a16040518060400160405280600b81526020017f72616e6420736565643a20000000000000000000000000000000000000000000815250826119d7565b600980549050816107b29190613459565b90506107f36040518060400160405280601181526020017f72616e6420666972737420776f726b3b20000000000000000000000000000000815250826119d7565b6009818154811061082d577f4e487b7100000000000000000000000000000000000000000000000000000000600052603260045260246000fd5b906000526020600020018054610842906133ad565b80601f016020809104026020016040519081016040528092919081815260200182805461086e906133ad565b80156108bb5780601f10610890576101008083540402835291602001916108bb565b820191906000526020600020905b81548152906001019060200180831161089e57829003601f168201915b5050505050915050919050565b6108e383838360405180602001604052806000815250610c6d565b505050565b6000806002600084815260200190815260200160002060009054906101000a900473ffffffffffffffffffffffffffffffffffffffff169050600073ffffffffffffffffffffffffffffffffffffffff168173ffffffffffffffffffffffffffffffffffffffff161415610991576040517f08c379a000000000000000000000000000000000000000000000000000000000815260040161098890613019565b60405180910390fd5b80915050919050565b6000806109a76007611a73565b90508091505090565b60008073ffffffffffffffffffffffffffffffffffffffff168273ffffffffffffffffffffffffffffffffffffffff161415610a21576040517f08c379a0000000000000000000000000000000000000000000000000000000008152600401610a1890612ff9565b60405180910390fd5b600360008373ffffffffffffffffffffffffffffffffffffffff1673ffffffffffffffffffffffffffffffffffffffff168152602001908152602001600020549050919050565b606060018054610a77906133ad565b80601f0160208091040260200160405190810160405280929190818152602001828054610aa3906133ad565b8015610af05780601f10610ac557610100808354040283529160200191610af0565b820191906000526020600020905b815481529060010190602001808311610ad357829003601f168201915b5050505050905090565b610b0c610b056113f1565b8383611a81565b5050565b60606000610b44610b20846117f7565b604051602001610b309190612d78565b6040516020818303038152906040526119a4565b9050610b856040518060400160405280600b81526020017f72616e6420736565643a20000000000000000000000000000000000000000000815250826119d7565b600a8054905081610b969190613459565b9050600a8181548110610bd2577f4e487b7100000000000000000000000000000000000000000000000000000000600052603260045260246000fd5b906000526020600020018054610be7906133ad565b80601f0160208091040260200160405190810160405280929190818152602001828054610c13906133ad565b8015610c605780601f10610c3557610100808354040283529160200191610c60565b820191906000526020600020905b815481529060010190602001808311610c4357829003601f168201915b5050505050915050919050565b610c7e610c786113f1565b836114b2565b610cbd576040517f08c379a0000000000000000000000000000000000000000000000000000000008152600401610cb4906130f9565b60405180910390fd5b610cc984848484611bee565b50505050565b60606000610d03610cdf846117f7565b604051602001610cef9190612d56565b6040516020818303038152906040526119a4565b9050610d446040518060400160405280600b81526020017f72616e6420736565643a20000000000000000000000000000000000000000000815250826119d7565b600b8054905081610d559190613459565b9050600b8181548110610d91577f4e487b7100000000000000000000000000000000000000000000000000000000600052603260045260246000fd5b906000526020600020018054610da6906133ad565b80601f0160208091040260200160405190810160405280929190818152602001828054610dd2906133ad565b8015610e1f5780601f10610df457610100808354040283529160200191610e1f565b820191906000526020600020905b815481529060010190602001808311610e0257829003601f168201915b5050505050915050919050565b6060610e3782611385565b610e76576040517f08c379a0000000000000000000000000000000000000000000000000000000008152600401610e6d90613079565b60405180910390fd5b6000600660008481526020019081526020016000208054610e96906133ad565b80601f0160208091040260200160405190810160405280929190818152602001828054610ec2906133ad565b8015610f0f5780601f10610ee457610100808354040283529160200191610f0f565b820191906000526020600020905b815481529060010190602001808311610ef257829003601f168201915b505050505090506000610f20611c4a565b9050600081511415610f36578192505050610f79565b600082511115610f6b578082604051602001610f53929190612c73565b60405160208183030381529060405292505050610f79565b610f7484611c61565b925050505b919050565b6000610f8a6007611a73565b90506000610f978261072c565b90506000610fa483610b10565b90506000610fb184610ccf565b90506000838383604051602001610fca93929190612c97565b604051602081830303815290604052905060006008858585604051602001610ff59493929190612cc8565b60405160208183030381529060405290506110446040518060400160405280600e81526020017f0a2d2d2d2d2d2d2d2d2d2d2d2d2d000000000000000000000000000000000000815250611282565b61104d81611282565b61108b6040518060400160405280600e81526020017f2d2d2d2d2d2d2d2d2d2d2d2d2d0a000000000000000000000000000000000000815250611282565b60006110bf8361109a84611d08565b6040516020016110ab929190612d11565b604051602081830303815290604052611d08565b90506000816040516020016110d49190612dbc565b60405160208183030381529060405290506111236040518060400160405280601a81526020017f0a2d2d2d2d2d2d2d546f6b656e20555249202d2d2d2d2d2d2d2d000000000000815250611282565b61112c81611282565b61116a6040518060400160405280601981526020017f2d2d2d2d2d2d2d2d2d2d2d2d2d2d2d2d2d2d2d2d2d2d2d2d0a00000000000000815250611282565b6111743389611ec6565b61117e8882611ee4565b6111a1604051806060016040528060258152602001613bec602591398933611f58565b6111ab6007611ff7565b7febb98688741ffa4c7589bf325de30cf7becb63de567842e1ccdb6cb949fdc82c33896040516111dc929190612e45565b60405180910390a15050505050505050565b6000600560008473ffffffffffffffffffffffffffffffffffffffff1673ffffffffffffffffffffffffffffffffffffffff16815260200190815260200160002060008373ffffffffffffffffffffffffffffffffffffffff1673ffffffffffffffffffffffffffffffffffffffff16815260200190815260200160002060009054906101000a900460ff16905092915050565b611318816040516024016112969190612e89565b6040516020818303038152906040527f41304fac000000000000000000000000000000000000000000000000000000007bffffffffffffffffffffffffffffffffffffffffffffffffffffffff19166020820180517bffffffffffffffffffffffffffffffffffffffffffffffffffffffff838183161783525050505061200d565b50565b60007f01ffc9a7000000000000000000000000000000000000000000000000000000007bffffffffffffffffffffffffffffffffffffffffffffffffffffffff1916827bffffffffffffffffffffffffffffffffffffffffffffffffffffffff1916149050919050565b60008073ffffffffffffffffffffffffffffffffffffffff166002600084815260200190815260200160002060009054906101000a900473ffffffffffffffffffffffffffffffffffffffff1673ffffffffffffffffffffffffffffffffffffffff1614159050919050565b600033905090565b816004600083815260200190815260200160002060006101000a81548173ffffffffffffffffffffffffffffffffffffffff021916908373ffffffffffffffffffffffffffffffffffffffff160217905550808273ffffffffffffffffffffffffffffffffffffffff1661146c836108e8565b73ffffffffffffffffffffffffffffffffffffffff167f8c5be1e5ebec7d5bd14f71427d1e84f3dd0314c0f7b2291e5b200ac8c7c3b92560405160405180910390a45050565b60006114bd82611385565b6114fc576040517f08c379a00000000000000000000000000000000000000000000000000000000081526004016114f390612fb9565b60405180910390fd5b6000611507836108e8565b90508073ffffffffffffffffffffffffffffffffffffffff168473ffffffffffffffffffffffffffffffffffffffff16148061157657508373ffffffffffffffffffffffffffffffffffffffff1661155e8461052f565b73ffffffffffffffffffffffffffffffffffffffff16145b80611587575061158681856111ee565b5b91505092915050565b8273ffffffffffffffffffffffffffffffffffffffff166115b0826108e8565b73ffffffffffffffffffffffffffffffffffffffff1614611606576040517f08c379a00000000000000000000000000000000000000000000000000000000081526004016115fd90612f39565b60405180910390fd5b600073ffffffffffffffffffffffffffffffffffffffff168273ffffffffffffffffffffffffffffffffffffffff161415611676576040517f08c379a000000000000000000000000000000000000000000000000000000000815260040161166d90612f79565b60405180910390fd5b611681838383612036565b61168c6000826113f9565b6001600360008573ffffffffffffffffffffffffffffffffffffffff1673ffffffffffffffffffffffffffffffffffffffff16815260200190815260200160002060008282546116dc91906132c3565b925050819055506001600360008473ffffffffffffffffffffffffffffffffffffffff1673ffffffffffffffffffffffffffffffffffffffff168152602001908152602001600020600082825461173391906131e2565b92505081905550816002600083815260200190815260200160002060006101000a81548173ffffffffffffffffffffffffffffffffffffffff021916908373ffffffffffffffffffffffffffffffffffffffff160217905550808273ffffffffffffffffffffffffffffffffffffffff168473ffffffffffffffffffffffffffffffffffffffff167fddf252ad1be2c89b69c2b068fc378daa952ba7f163c4a11628f55a4df523b3ef60405160405180910390a46117f283838361203b565b505050565b6060600082141561183f576040518060400160405280600181526020017f3000000000000000000000000000000000000000000000000000000000000000815250905061199f565b600082905060005b6000821461187157808061185a90613410565b915050600a8261186a9190613238565b9150611847565b60008167ffffffffffffffff8111156118b3577f4e487b7100000000000000000000000000000000000000000000000000000000600052604160045260246000fd5b6040519080825280601f01601f1916602001820160405280156118e55781602001600182028036833780820191505090505b5090505b60008514611998576001826118fe91906132c3565b9150600a8561190d9190613459565b603061191991906131e2565b60f81b818381518110611955577f4e487b7100000000000000000000000000000000000000000000000000000000600052603260045260246000fd5b60200101907effffffffffffffffffffffffffffffffffffffffffffffffffffffffffffff1916908160001a905350600a856119919190613238565b94506118e9565b8093505050505b919050565b6000816040516020016119b79190612c5c565b6040516020818303038152906040528051906020012060001c9050919050565b611a6f82826040516024016119ed929190612eab565b6040516020818303038152906040527f9710a9d0000000000000000000000000000000000000000000000000000000007bffffffffffffffffffffffffffffffffffffffffffffffffffffffff19166020820180517bffffffffffffffffffffffffffffffffffffffffffffffffffffffff838183161783525050505061200d565b5050565b600081600001549050919050565b8173ffffffffffffffffffffffffffffffffffffffff168373ffffffffffffffffffffffffffffffffffffffff161415611af0576040517f08c379a0000000000000000000000000000000000000000000000000000000008152600401611ae790612f99565b60405180910390fd5b80600560008573ffffffffffffffffffffffffffffffffffffffff1673ffffffffffffffffffffffffffffffffffffffff16815260200190815260200160002060008473ffffffffffffffffffffffffffffffffffffffff1673ffffffffffffffffffffffffffffffffffffffff16815260200190815260200160002060006101000a81548160ff0219169083151502179055508173ffffffffffffffffffffffffffffffffffffffff168373ffffffffffffffffffffffffffffffffffffffff167f17307eab39ab6107e8899845ad3d59bd9653f200f220920489ca2b5937696c3183604051611be19190612e6e565b60405180910390a3505050565b611bf9848484611590565b611c0584848484612040565b611c44576040517f08c379a0000000000000000000000000000000000000000000000000000000008152600401611c3b90612f19565b60405180910390fd5b50505050565b606060405180602001604052806000815250905090565b6060611c6c82611385565b611cab576040517f08c379a0000000000000000000000000000000000000000000000000000000008152600401611ca2906130b9565b60405180910390fd5b6000611cb5611c4a565b90506000815111611cd55760405180602001604052806000815250611d00565b80611cdf846117f7565b604051602001611cf0929190612c73565b6040516020818303038152906040525b915050919050565b60606000825190506000811415611d315760405180602001604052806000815250915050611ec1565b60006003600283611d4291906131e2565b611d4c9190613238565b6004611d589190613269565b90506000602082611d6991906131e2565b67ffffffffffffffff811115611da8577f4e487b7100000000000000000000000000000000000000000000000000000000600052604160045260246000fd5b6040519080825280601f01601f191660200182016040528015611dda5781602001600182028036833780820191505090505b5090506000604051806060016040528060408152602001613c11604091399050600181016020830160005b86811015611e7e5760038101905062ffffff818a015116603f8160121c168401518060081b905060ff603f83600c1c1686015116810190508060081b905060ff603f8360061c1686015116810190508060081b905060ff603f831686015116810190508060e01b90508084526004840193505050611e05565b506003860660018114611e985760028114611ea857611eb3565b613d3d60f01b6002830352611eb3565b603d60f81b60018303525b508484525050819450505050505b919050565b611ee08282604051806020016040528060008152506121d7565b5050565b611eed82611385565b611f2c576040517f08c379a0000000000000000000000000000000000000000000000000000000008152600401611f2390613039565b60405180910390fd5b80600660008481526020019081526020016000209080519060200190611f5392919061242f565b505050565b611ff2838383604051602401611f7093929190612edb565b6040516020818303038152906040527fe3849f79000000000000000000000000000000000000000000000000000000007bffffffffffffffffffffffffffffffffffffffffffffffffffffffff19166020820180517bffffffffffffffffffffffffffffffffffffffffffffffffffffffff838183161783525050505061200d565b505050565b6001816000016000828254019250508190555050565b60008151905060006a636f6e736f6c652e6c6f679050602083016000808483855afa5050505050565b505050565b505050565b60006120618473ffffffffffffffffffffffffffffffffffffffff16612232565b156121ca578373ffffffffffffffffffffffffffffffffffffffff1663150b7a0261208a6113f1565b8786866040518563ffffffff1660e01b81526004016120ac9493929190612df9565b602060405180830381600087803b1580156120c657600080fd5b505af19250505080156120f757506040513d601f19601f820116820180604052508101906120f49190612773565b60015b61217a573d8060008114612127576040519150601f19603f3d011682016040523d82523d6000602084013e61212c565b606091505b50600081511415612172576040517f08c379a000000000000000000000000000000000000000000000000000000000815260040161216990612f19565b60405180910390fd5b805181602001fd5b63150b7a0260e01b7bffffffffffffffffffffffffffffffffffffffffffffffffffffffff1916817bffffffffffffffffffffffffffffffffffffffffffffffffffffffff1916149150506121cf565b600190505b949350505050565b6121e18383612255565b6121ee6000848484612040565b61222d576040517f08c379a000000000000000000000000000000000000000000000000000000000815260040161222490612f19565b60405180910390fd5b505050565b6000808273ffffffffffffffffffffffffffffffffffffffff163b119050919050565b600073ffffffffffffffffffffffffffffffffffffffff168273ffffffffffffffffffffffffffffffffffffffff1614156122c5576040517f08c379a00000000000000000000000000000000000000000000000000000000081526004016122bc90613059565b60405180910390fd5b6122ce81611385565b1561230e576040517f08c379a000000000000000000000000000000000000000000000000000000000815260040161230590612f59565b60405180910390fd5b61231a60008383612036565b6001600360008473ffffffffffffffffffffffffffffffffffffffff1673ffffffffffffffffffffffffffffffffffffffff168152602001908152602001600020600082825461236a91906131e2565b92505081905550816002600083815260200190815260200160002060006101000a81548173ffffffffffffffffffffffffffffffffffffffff021916908373ffffffffffffffffffffffffffffffffffffffff160217905550808273ffffffffffffffffffffffffffffffffffffffff16600073ffffffffffffffffffffffffffffffffffffffff167fddf252ad1be2c89b69c2b068fc378daa952ba7f163c4a11628f55a4df523b3ef60405160405180910390a461242b6000838361203b565b5050565b82805461243b906133ad565b90600052602060002090601f01602090048101928261245d57600085556124a4565b82601f1061247657805160ff19168380011785556124a4565b828001600101855582156124a4579182015b828111156124a3578251825591602001919060010190612488565b5b5090506124b191906124b5565b5090565b5b808211156124ce5760008160009055506001016124b6565b5090565b60006124e56124e084613159565b613134565b9050828152602081018484840111156124fd57600080fd5b61250884828561336b565b509392505050565b60008135905061251f81613b8f565b92915050565b60008135905061253481613ba6565b92915050565b60008135905061254981613bbd565b92915050565b60008151905061255e81613bbd565b92915050565b600082601f83011261257557600080fd5b81356125858482602086016124d2565b91505092915050565b60008135905061259d81613bd4565b92915050565b6000602082840312156125b557600080fd5b60006125c384828501612510565b91505092915050565b600080604083850312156125df57600080fd5b60006125ed85828601612510565b92505060206125fe85828601612510565b9150509250929050565b60008060006060848603121561261d57600080fd5b600061262b86828701612510565b935050602061263c86828701612510565b925050604061264d8682870161258e565b9150509250925092565b6000806000806080858703121561266d57600080fd5b600061267b87828801612510565b945050602061268c87828801612510565b935050604061269d8782880161258e565b925050606085013567ffffffffffffffff8111156126ba57600080fd5b6126c687828801612564565b91505092959194509250565b600080604083850312156126e557600080fd5b60006126f385828601612510565b925050602061270485828601612525565b9150509250929050565b6000806040838503121561272157600080fd5b600061272f85828601612510565b92505060206127408582860161258e565b9150509250929050565b60006020828403121561275c57600080fd5b600061276a8482850161253a565b91505092915050565b60006020828403121561278557600080fd5b60006127938482850161254f565b91505092915050565b6000602082840312156127ae57600080fd5b60006127bc8482850161258e565b91505092915050565b6127ce816132f7565b82525050565b6127dd81613309565b82525050565b60006127ee8261319f565b6127f881856131b5565b935061280881856020860161337a565b61281181613546565b840191505092915050565b6000612827826131aa565b61283181856131c6565b935061284181856020860161337a565b61284a81613546565b840191505092915050565b6000612860826131aa565b61286a81856131d7565b935061287a81856020860161337a565b80840191505092915050565b60008154612893816133ad565b61289d81866131d7565b945060018216600081146128b857600181146128c9576128fc565b60ff198316865281860193506128fc565b6128d28561318a565b60005b838110156128f4578154818901526001820191506020810190506128d5565b838801955050505b50505092915050565b60006129126009836131d7565b915061291d82613557565b600982019050919050565b60006129356032836131c6565b915061294082613580565b604082019050919050565b60006129586025836131c6565b9150612963826135cf565b604082019050919050565b600061297b601c836131c6565b91506129868261361e565b602082019050919050565b600061299e600a836131d7565b91506129a982613647565b600a82019050919050565b60006129c16024836131c6565b91506129cc82613670565b604082019050919050565b60006129e46019836131c6565b91506129ef826136bf565b602082019050919050565b6000612a076063836131d7565b9150612a12826136e8565b606382019050919050565b6000612a2a600b836131d7565b9150612a3582613783565b600b82019050919050565b6000612a4d602c836131c6565b9150612a58826137ac565b604082019050919050565b6000612a70600d836131d7565b9150612a7b826137fb565b600d82019050919050565b6000612a936038836131c6565b9150612a9e82613824565b604082019050919050565b6000612ab6602a836131c6565b9150612ac182613873565b604082019050919050565b6000612ad96029836131c6565b9150612ae4826138c2565b604082019050919050565b6000612afc602e836131c6565b9150612b0782613911565b604082019050919050565b6000612b1f6002836131d7565b9150612b2a82613960565b600282019050919050565b6000612b426020836131c6565b9150612b4d82613989565b602082019050919050565b6000612b656031836131c6565b9150612b70826139b2565b604082019050919050565b6000612b88602c836131c6565b9150612b9382613a01565b604082019050919050565b6000612bab602f836131c6565b9150612bb682613a50565b604082019050919050565b6000612bce6021836131c6565b9150612bd982613a9f565b604082019050919050565b6000612bf1600a836131d7565b9150612bfc82613aee565b600a82019050919050565b6000612c14601d836131d7565b9150612c1f82613b17565b601d82019050919050565b6000612c376031836131c6565b9150612c4282613b40565b604082019050919050565b612c5681613361565b82525050565b6000612c688284612855565b915081905092915050565b6000612c7f8285612855565b9150612c8b8284612855565b91508190509392505050565b6000612ca38286612855565b9150612caf8285612855565b9150612cbb8284612855565b9150819050949350505050565b6000612cd48287612886565b9150612ce08286612855565b9150612cec8285612855565b9150612cf88284612855565b9150612d0382612a63565b915081905095945050505050565b6000612d1c82612905565b9150612d288285612855565b9150612d33826129fa565b9150612d3f8284612855565b9150612d4a82612b12565b91508190509392505050565b6000612d6182612991565b9150612d6d8284612855565b915081905092915050565b6000612d8382612a1d565b9150612d8f8284612855565b915081905092915050565b6000612da582612be4565b9150612db18284612855565b915081905092915050565b6000612dc782612c07565b9150612dd38284612855565b915081905092915050565b6000602082019050612df360008301846127c5565b92915050565b6000608082019050612e0e60008301876127c5565b612e1b60208301866127c5565b612e286040830185612c4d565b8181036060830152612e3a81846127e3565b905095945050505050565b6000604082019050612e5a60008301856127c5565b612e676020830184612c4d565b9392505050565b6000602082019050612e8360008301846127d4565b92915050565b60006020820190508181036000830152612ea3818461281c565b905092915050565b60006040820190508181036000830152612ec5818561281c565b9050612ed46020830184612c4d565b9392505050565b60006060820190508181036000830152612ef5818661281c565b9050612f046020830185612c4d565b612f1160408301846127c5565b949350505050565b60006020820190508181036000830152612f3281612928565b9050919050565b60006020820190508181036000830152612f528161294b565b9050919050565b60006020820190508181036000830152612f728161296e565b9050919050565b60006020820190508181036000830152612f92816129b4565b9050919050565b60006020820190508181036000830152612fb2816129d7565b9050919050565b60006020820190508181036000830152612fd281612a40565b9050919050565b60006020820190508181036000830152612ff281612a86565b9050919050565b6000602082019050818103600083015261301281612aa9565b9050919050565b6000602082019050818103600083015261303281612acc565b9050919050565b6000602082019050818103600083015261305281612aef565b9050919050565b6000602082019050818103600083015261307281612b35565b9050919050565b6000602082019050818103600083015261309281612b58565b9050919050565b600060208201905081810360008301526130b281612b7b565b9050919050565b600060208201905081810360008301526130d281612b9e565b9050919050565b600060208201905081810360008301526130f281612bc1565b9050919050565b6000602082019050818103600083015261311281612c2a565b9050919050565b600060208201905061312e6000830184612c4d565b92915050565b600061313e61314f565b905061314a82826133df565b919050565b6000604051905090565b600067ffffffffffffffff82111561317457613173613517565b5b61317d82613546565b9050602081019050919050565b60008190508160005260206000209050919050565b600081519050919050565b600081519050919050565b600082825260208201905092915050565b600082825260208201905092915050565b600081905092915050565b60006131ed82613361565b91506131f883613361565b9250827fffffffffffffffffffffffffffffffffffffffffffffffffffffffffffffffff0382111561322d5761322c61348a565b5b828201905092915050565b600061324382613361565b915061324e83613361565b92508261325e5761325d6134b9565b5b828204905092915050565b600061327482613361565b915061327f83613361565b9250817fffffffffffffffffffffffffffffffffffffffffffffffffffffffffffffffff04831182151516156132b8576132b761348a565b5b828202905092915050565b60006132ce82613361565b91506132d983613361565b9250828210156132ec576132eb61348a565b5b828203905092915050565b600061330282613341565b9050919050565b60008115159050919050565b60007fffffffff0000000000000000000000000000000000000000000000000000000082169050919050565b600073ffffffffffffffffffffffffffffffffffffffff82169050919050565b6000819050919050565b82818337600083830152505050565b60005b8381101561339857808201518184015260208101905061337d565b838111156133a7576000848401525b50505050565b600060028204905060018216806133c557607f821691505b602082108114156133d9576133d86134e8565b5b50919050565b6133e882613546565b810181811067ffffffffffffffff8211171561340757613406613517565b5b80604052505050565b600061341b82613361565b91507fffffffffffffffffffffffffffffffffffffffffffffffffffffffffffffffff82141561344e5761344d61348a565b5b600182019050919050565b600061346482613361565b915061346f83613361565b92508261347f5761347e6134b9565b5b828206905092915050565b7f4e487b7100000000000000000000000000000000000000000000000000000000600052601160045260246000fd5b7f4e487b7100000000000000000000000000000000000000000000000000000000600052601260045260246000fd5b7f4e487b7100000000000000000000000000000000000000000000000000000000600052602260045260246000fd5b7f4e487b7100000000000000000000000000000000000000000000000000000000600052604160045260246000fd5b6000601f19601f8301169050919050565b7f7b226e616d65223a220000000000000000000000000000000000000000000000600082015250565b7f4552433732313a207472616e7366657220746f206e6f6e20455243373231526560008201527f63656976657220696d706c656d656e7465720000000000000000000000000000602082015250565b7f4552433732313a207472616e736665722066726f6d20696e636f72726563742060008201527f6f776e6572000000000000000000000000000000000000000000000000000000602082015250565b7f4552433732313a20746f6b656e20616c7265616479206d696e74656400000000600082015250565b7f54484952445f574f524400000000000000000000000000000000000000000000600082015250565b7f4552433732313a207472616e7366657220746f20746865207a65726f2061646460008201527f7265737300000000000000000000000000000000000000000000000000000000602082015250565b7f4552433732313a20617070726f766520746f2063616c6c657200000000000000600082015250565b7f222c20226465736372697074696f6e223a20224120686967686c79206163636c60008201527f61696d656420636f6c6c656374696f6e206f6620737175617265732e222c202260208201527f696d616765223a2022646174613a696d6167652f7376672b786d6c3b6261736560408201527f36342c0000000000000000000000000000000000000000000000000000000000606082015250565b7f5345434f4e445f574f5244000000000000000000000000000000000000000000600082015250565b7f4552433732313a206f70657261746f7220717565727920666f72206e6f6e657860008201527f697374656e7420746f6b656e0000000000000000000000000000000000000000602082015250565b7f3c2f746578743e3c2f7376673e00000000000000000000000000000000000000600082015250565b7f4552433732313a20617070726f76652063616c6c6572206973206e6f74206f7760008201527f6e6572206e6f7220617070726f76656420666f7220616c6c0000000000000000602082015250565b7f4552433732313a2062616c616e636520717565727920666f7220746865207a6560008201527f726f206164647265737300000000000000000000000000000000000000000000602082015250565b7f4552433732313a206f776e657220717565727920666f72206e6f6e657869737460008201527f656e7420746f6b656e0000000000000000000000000000000000000000000000602082015250565b7f45524337323155524953746f726167653a2055524920736574206f66206e6f6e60008201527f6578697374656e7420746f6b656e000000000000000000000000000000000000602082015250565b7f227d000000000000000000000000000000000000000000000000000000000000600082015250565b7f4552433732313a206d696e7420746f20746865207a65726f2061646472657373600082015250565b7f45524337323155524953746f726167653a2055524920717565727920666f722060008201527f6e6f6e6578697374656e7420746f6b656e000000000000000000000000000000602082015250565b7f4552433732313a20617070726f76656420717565727920666f72206e6f6e657860008201527f697374656e7420746f6b656e0000000000000000000000000000000000000000602082015250565b7f4552433732314d657461646174613a2055524920717565727920666f72206e6f60008201527f6e6578697374656e7420746f6b656e0000000000000000000000000000000000602082015250565b7f4552433732313a20617070726f76616c20746f2063757272656e74206f776e6560008201527f7200000000000000000000000000000000000000000000000000000000000000602082015250565b7f46495253545f574f524400000000000000000000000000000000000000000000600082015250565b7f646174613a6170706c69636174696f6e2f6a736f6e3b6261736536342c000000600082015250565b7f4552433732313a207472616e736665722063616c6c6572206973206e6f74206f60008201527f776e6572206e6f7220617070726f766564000000000000000000000000000000602082015250565b613b98816132f7565b8114613ba357600080fd5b50565b613baf81613309565b8114613bba57600080fd5b50565b613bc681613315565b8114613bd157600080fd5b50565b613bdd81613361565b8114613be857600080fd5b5056fe416e204e465420772f20494420257320686173206265656e206d696e74656420746f2025734142434445464748494a4b4c4d4e4f505152535455565758595a6162636465666768696a6b6c6d6e6f707172737475767778797a303132333435363738392b2fa2646970667358221220021686a3934de1ba2809b48b7e2a1dc5494cbc0a467a95f06f1095aefa3d374064736f6c634300080400333c73766720786d6c6e733d27687474703a2f2f7777772e77332e6f72672f323030302f73766727207072657365727665417370656374526174696f3d27784d696e594d696e206d656574272076696577426f783d273020302033353020333530273e3c7374796c653e2e62617365207b2066696c6c3a2077686974653b20666f6e742d66616d696c793a2073657269663b20666f6e742d73697a653a20323470783b207d3c2f7374796c653e3c726563742077696474683d273130302527206865696768743d2731303025272066696c6c3d27626c61636b27202f3e3c7465787420783d273530252720793d273530252720636c6173733d27626173652720646f6d696e616e742d626173656c696e653d276d6964646c652720746578742d616e63686f723d276d6964646c65273e",
  "linkReferences": {},
  "deployedLinkReferences": {}
}